:020000040800F2
:10000000480500200501000887140008491200086F
:100010008514000897050008031A00080000000076
:100020000000000000000000000000004917000868
:1000300099050008000000004D1500087917000818
:100040001F0100081F0100081F0100081F01000810
:100050001F0100081F0100081F0100081F01000800
:100060001F0100081F0100081F0100081F010008F0
:100070001F0100081F0100081F0100081F010008E0
:100080001F0100081F0100081F0100081F010008D0
:100090001F0100081F0100081F0100081F010008C0
:1000A0001F0100081F0100081F0100081F010008B0
:1000B0001F0100081F0100081F0100081F010008A0
:1000C0001F0100081F0100081F0100081F01000890
:1000D0001F0100081F0100081F0100081F01000880
:1000E0001F0100081F0100081F010008DFF810D0E1
:1000F00000F030FA00480047C11A0008AFF3008052
:10010000480500200648804706480047FEE7FEE70E
:10011000FEE7FEE7FEE7FEE7FEE7FEE7FEE7FEE7B7
:10012000CB170008ED000008202A04DB203A21FA52
:1001300002F00021704721FA02F3D040C2F1200200
:100140009140084319467047D2B201E000F8012BF4
:10015000491EFBD270470022F6E710B513460A4647
:1001600004461946FFF7F0FF204610BDF0B480EAC0
:100170000102D40F4200B2EB410F02D20246084600
:1001800011464A0042D0C30DDDB2C1F3C752AD1AC9
:10019000202D35DAC1F3160141F4000204B15242B8
:1001A000C5F1200602FA06F12A411044B3EBD05FF4
:1001B00023D0C4B1012DA0EBC35009DCF0BC4FF03B
:1001C000004202EAC352DBB200F5000000F037B98A
:1001D000400000F1807000EBC350A0F1807040EA55
:1001E000D170490009E0490841EAC071A0EBC35051
:1001F00000F50000400800EBC350F0BC00F016B959
:100200006142012202EB4101001BF6E7F0BC70479E
:1002100081F00041AAE780F00040A7E780EA0102F0
:1002200010B502F00043400022D04A001FD0010E5A
:1002300001EB1261C0F35600C2F3560240F4000015
:1002400042F40002A0FB022000047F39140400D015
:10025000401C50EA124001D44000491EC2B20C06B4
:1002600004EBD010401C4008802A02D003E000209C
:1002700010BD20F00100002900DA0020184310BD55
:100280002DE9FE4F81EA030404F0004421F000410F
:1002900000944FF0000B23F0004350EA01045ED0BD
:1002A00052EA03045BD0C3F30A54C1F30A552C4449
:1002B000A4F2F3340194A0FB0254C1F3130141F4FE
:1002C0008011C3F3130343F4801301FB024400FBCA
:1002D000034E840A970A44EA815447EA8357A4FBF1
:1002E000076802958D0A05FB07854FEA932C04FBEE
:1002F0000C542705029D4FEA065847EA1637B5EB1E
:1003000008056EEB070C870E920E47EA811742EA4A
:100310008312A7FB0201B6EB0B0164EB00042B0D6B
:1003200043EA0C335E1844EB1C50DA465146E7FBB7
:100330000201C5F313044FEA0B3343EA14534FEAA7
:100340000432019C43EA0603A4F10C040294009CCD
:10035000CDE900B400F0B0F803B0BDE8F08F0020A4
:100360000146F9E7C10F80EAE0700844CA07962306
:10037000002100F064B80EB5C10F80EAE0700844B7
:10038000CA07002140F233438DE80E000A460B46AF
:1003900000F092F803B000BD00F0004220F00040F1
:1003A000C10DC0F3160040F400007F2901DA0020DF
:1003B0007047962903DCC1F19601C84001E09639E7
:1003C0008840002AF4D040427047C1F30A5210B569
:1003D000C1F3130140F2FF3341F480119A4201DA74
:1003E000002010BD40F233439A42A2F2334203DCB4
:1003F0005242FFF799FE10BD904010BD30B5041E6B
:1004000071F1000404DB4FF00044404264EB010151
:10041000141E73F1000405DB1C464FF000435242EA
:1004200063EB04038B4208BF824230BD0029A8BFA2
:100430007047401C490008BF20F00100704710B40D
:10044000B0FA80FC00FA0CF050EA010404BF10BCC2
:10045000704749B1CCF1200421FA04F411FA0CF1EF
:1004600018BF012121430843A3EB0C01CB1D4FEA28
:1004700000614FEA102042BF002010BC704700EB23
:10048000C35010440029A4BF10BC7047401C490051
:1004900008BF20F0010010BC704710B5141E73F1A6
:1004A000000408DA401C41F1000192185B411A4334
:1004B00001D120F0010010BD2DE9F04D92469B4680
:1004C00011B1B1FA81F202E0B0FA80F22032904626
:1004D00000F052F804460F4640EA0A0041EA0B01D8
:1004E00053465A46084313D0114653EA010019D027
:1004F000C8F140025046FFF717FE05460E4650462B
:100500005946424600F038F8084305D0012004E07F
:1005100020463946BDE8F08D0020054346EAE076E6
:100520002C4337430A986305E40AA0EB0800002235
:10053000FD0A44EA47540A3002D500200146E9E7A3
:10054000010510196941DDE9084500196941BDE857
:10055000F04DA2E7064C074D06E0E06840F00103CD
:1005600094E8070098471034AC42F6D3FFF7C2FD79
:10057000541C0008741C0008202A04DB203A00FAEE
:1005800002F1002070479140C2F1200320FA03F3EA
:10059000194390407047FEE77047000070B504466D
:1005A00000F008F90546601C02D0044800780444B5
:1005B00000F000F9401BA042FAD370BD38000020C3
:1005C0002DE9F84FDFF8B891002409F1040A0AF187
:1005D000040B23460F270BF1040EC9E00125A540AB
:1005E0002A40AA427DD1674ED1F804C0ACEB060880
:1005F000B44532D014DCBCF1030F3AD009DCBCF1B5
:10060000000F2AD0BCF1010F1CD0BCF1020F31D178
:100610001DE0BCF1110F17D0BCF1120F2AD119E067
:10062000B8F5881F19D006DCB8F5803F15D0B8F5AD
:10063000801F1FD111E0B8F5001F0ED0B8F5041FC0
:1006400018D10AE0CB6815E0CB681B1D12E0CB681F
:1006500008330FE0CB680C330CE08B682BB1012B17
:100660004FF0080303D0456104E0042302E0056174
:1006700000E00023FF2A01D8064601E000F104064D
:100680004FEA840501D9A5F12005D6F8008007FAC4
:1006900005FC28EA0C0803FA05F548EA0508C6F83F
:1006A00000804D68ED0062D5374DAE6946F0010619
:1006B000AE61AD6924F0030605F001050095334DE8
:1006C00006EB050CDCF80850A607360F07FA06F80B
:1006D00025EA0805DFF8B880404503D14FF000084F
:1006E00017E044E0DFF8AC80404502D14FF001084C
:1006F0000FE0DFF8A480404502D14FF0020808E087
:10070000DFF89880404502D14FF0030801E04FF038
:10071000040808FA06F848EA0508CCF808804D688D
:10072000D9F80060ED034D4601D5164300E096432D
:100730002E604D68DAF80060AD03554601D51643CA
:1007400000E096432E604D68DBF80060ED025D46E8
:1007500001D5164300E096432E604D68DEF8006038
:10076000AD02754601D5164300E096432E60641C29
:100770000D682A46E5407FF431AFBDE8F88F0000F0
:100780000004014000001110001002400000014070
:1007900000080140000C014000100140001401401D
:1007A0008068084000D0012070470AB1016170479D
:1007B0000904FBE70148806870470000380000200A
:1007C0000248816802781144816070473800002037
:1007D000074810B5016841F010010160032000F0E6
:1007E00067F8002000F006F800F024F8002010BDA3
:1007F0000020024070B50D4D04464FF47A71287800
:10080000B1FBF0F00A490968B1FBF0F000F0BEFA64
:1008100048B9102C07D200222146501E00F028F8BB
:1008200000206C6070BD012070BD00003800002009
:10083000440000200C4808B5816941F00101816144
:10084000816901F001010091C16941F08051C161EC
:10085000C06900F0805000900448416821F0E061D8
:1008600041F00071416008BD0010024000000140ED
:10087000F0B40E4B1B680C46C3F30223C3F107050B
:10088000042D00D90425191D072901D2002300E0F9
:10089000DB1E012606FA05F1491E214099409E40C3
:1008A000761E16403143F0BC01F0ACB80CED00E010
:1008B000064900F0070208684FF6FF03184040EAB7
:1008C0000220034A10430860704700000CED00E06E
:1008D0000000FA052DE9F0470F46050061D0434EB0
:1008E000306800F00700B84209D2306820F00700F5
:1008F00038433060306800F00700B84251D12868B2
:100900003B4C810712D5400703D5606840F4E06096
:1009100060602878000703D5606840F4605060602C
:100920006068A96820F0F000084360602878C0077C
:1009300028D06868012810D02168022810D08907C3
:1009400000292EDA616821F0030101436160FFF79D
:1009500031FF804641F288390DE021688903EFE7D5
:100960008901EDE7FFF726FFA0EB0801494502D911
:100970000320BDE8F0876068696800F00C00B0EB08
:10098000810FEFD1306800F00700B8420BD9306812
:1009900020F0070038433060306800F00700B842AC
:1009A00001D00120E5E72878400705D56068E968AF
:1009B00020F4E060084360602878000706D560688E
:1009C000296920F4605040EAC100606000F018F826
:1009D0006168084AC1F30311515CC84006490860C8
:1009E00006480068FFF706FF0020C2E7002002402B
:1009F00000100240441C0008440000203C0000207D
:100A000012A185B00FC98DE80F0014A0144A006828
:100A100004905168134801F00C03042B10D0082BEC
:100A20000ED1C1F38343C9031DF803000AD55168F1
:100A300004AAC1F34041515C0A4A5043B0FBF1F0B3
:100A400005B0704708494843FAE70000020304056F
:100A5000060708090A0B0C0D0E0F1010010200000A
:100A60000010024000127A0000093D002DE9F84F05
:100A7000040070D02078C04DC00749D06868C0F32A
:100A80008100012807D06868C0F38100022809D1DD
:100A90006868C00306D52868800339D560680028D7
:100AA000E7D035E06068B0F5803F0BD010B1B0F50D
:100AB000A02F11D0286820F480302860286820F406
:100AC000802002E0286840F480302860606890B19F
:100AD000FFF770FE06460AE0286840F48020286090
:100AE000F0E700BFFFF766FE801B642873D8286814
:100AF0008003F7D50CE0FFF75DFE064605E000BF7A
:100B0000FFF758FE801B6428F0D828688003F7D4CC
:100B100020789A4E80074FF001094FF0000839D530
:100B2000686810F00C0F07D06868C0F381000228D5
:100B300009D16868C00306D42868800714D52069E5
:100B4000012808D110E02069B0B1C6F80090FFF785
:100B500031FE074605E00AE1FFF72CFEC01B022824
:100B6000C4D828688007F7D52868616920F0F800A4
:100B700040EAC10028600DE0C6F80080FFF71AFEC9
:100B8000074604E0FFF716FEC01B022823D828689A
:100B90008007F7D4207800072CD57948A169D9B10E
:100BA000C0F80090FFF706FE074604E0FFF702FEDC
:100BB000C01B02280FD8686A8007F7D571484FF428
:100BC000FA510068B0FBF1F0009000BF0098411EA0
:100BD0000091FAD20EE080E0C0F80080FFF7EAFD55
:100BE000074604E0FFF7E6FDC01B022875D8686AD7
:100BF0008007F7D42078400760D5E8690027C00057
:100C000008D4E86940F08050E861E869012700F005
:100C1000805000905C480168C90513D40168834680
:100C200041F480710160FFF7C5FD824606E000BF18
:100C3000FFF7C0FDA0EB0A0064284ED8DBF80000E7
:100C4000C005F5D5E06801280AD008B1052813D001
:100C5000286A20F001002862286A20F0040002E0DF
:100C6000286A40F001002862E06841F2883B98B1B0
:100C7000FFF7A0FD82460BE0286A40F004002862DE
:100C8000EEE700BFFFF796FDA0EB0A0159455AD8E1
:100C9000286A8007F6D50CE0FFF78CFD824605E058
:100CA000FFF788FDA0EB0A0159454CD8286A800758
:100CB000F6D41FB1E86920F08050E861E06988B39C
:100CC0006968C1F38101022944D00228C6F8608016
:100CD00004D0FFF76FFD044638E034E0FFF76AFD0B
:100CE000074604E0FFF766FDC01B02282BD82868E2
:100CF0008001F7D4206AB0F5803F05D16868A1680B
:100D000020F4003008436860D4E9080108436968AA
:100D100021F4741108436860C6F86090FFF74AFD3B
:100D2000044606E025E000BFFFF744FD001B022853
:100D300009D828688001F7D51BE000BFFFF73AFD0E
:100D4000001B022802D90320BDE8F88F2868800123
:100D5000F4D40EE00128F7D06868226A00F48031EC
:100D6000914204D1616A00F47010884201D00120E0
:100D7000EAE70020E8E700000010024000004242DD
:100D800080044242440000200070004010B5401E24
:100D9000B0F1807F01D3012010BD4FF0E0246061ED
:100DA0000F21601700F02EFE0020A06107202061B7
:100DB000002010BD70B590F83C20012A26D00124F7
:100DC00080F83C40022280F83D2003685A689D6804
:100DD00022F070060A6832435A600D4B02689A424C
:100DE00008D0B2F1804F05D00A4B9A4202D00A4B8C
:100DF0009A4204D1496825F080031943916080F834
:100E00003D40002180F83C10084670BD022070BDB6
:100E1000002C0140000400400008004010B5040010
:100E200003D094F83D0010B107E0012010BD002070
:100E300084F83C00204600F01FF8022084F83D00B2
:100E4000211D206800F0C2FC012084F8460084F8CF
:100E50003E0084F83F0084F8400084F8410084F8A4
:100E6000420084F8430084F8440084F8450084F884
:100E70003D00002010BD000008B5124A016812486C
:100E8000914207D1816941F400618161806900F478
:100E9000006009E00D4A914208D1C16941F00201A8
:100EA000C161C06900F00200009008BD084A91428B
:100EB000FBD1C16941F00401C161C06900F00400C7
:100EC000F2E70000002C0140001002400004004046
:100ED0000008004090F83D10012901D00120704722
:100EE000022180F83D1000680B49884208D0B0F11B
:100EF000804F05D00949884202D00949884204D16F
:100F0000816801F00701062903D0016841F0010161
:100F10000160002070470000002C014000040040E8
:100F20000008004070B5044690F83C00012817D036
:100F3000012584F83C50022084F83D002068826836
:100F400022F0770222F47F4282600868502830D075
:100F50000DDC20284DD005DC98B310283BD148E0AB
:100F6000022070BD302844D0402834D139E06028B8
:100F700028D0702806D0B0F5805F2CD0B0F5005F87
:100F800029D10AE0CB68D1E90121206800F061FC99
:100F90002068816841F0770109E0CB68D1E901213F
:100FA000206800F056FC2068816841F4804181602F
:100FB00011E0CA684968206800F000FD50212068EF
:100FC00007E016E0CA684968206800F008FD602163
:100FD000206800F048FC84F83D50002084F83C0074
:100FE00070BDCA684968206800F0E8FC40212068AC
:100FF000EFE7226801461046EBE7000010B586B027
:10100000002100910191029103911A4C03681A4941
:1010100002221A48A34219D18B6943F008038B615D
:101020008969039201F0080104913021CDE9001291
:101030006946FFF7C5FA1248416821F4406141F062
:10104000E06141F40061416006B010BD0D4CA34267
:10105000FAD18B6943F008038B618969039201F02F
:1010600008010491C021CDE900126946FFF7A8FAF2
:10107000EAE700000004004000100240000C0140BC
:10108000000001400008004070B5044690F83C00A4
:101090000D4601280AD0012084F83C0042B1042A00
:1010A00018D0082A2AD00C2A4DD139E0022070BD70
:1010B000206800F0E1FB2068816941F0080181614E
:1010C0002068816921F004018161206881692A69B1
:1010D000114311E0206800F0F7FB2068816941F4BA
:1010E000006181612068816921F4806181612068EB
:1010F00081692A6941EA0221816124E0206800F0C7
:101100000FFC2068C16941F00801C1612068C16914
:1011100021F00401C1612068C1692A69114311E00D
:10112000206800F029FC2068C16941F40061C161B8
:101130002068C16921F48061C1612068C1692A69A0
:1011400041EA0221C161002084F83C0070BD10B565
:10115000040003D094F83D0010B107E0012010BD59
:10116000002084F83C00204600F01EF8022084F89D
:101170003D00211D206800F029FB012084F8460075
:1011800084F83E0084F83F0084F8400084F8410071
:1011900084F8420084F8430084F8440084F8450051
:1011A00084F83D00002010BD7047000010B50446D3
:1011B000022249B104290ED0082913D094F8410025
:1011C000012816D0012010BD94F83E000128F9D165
:1011D00084F83E200FE094F83F000128F2D184F813
:1011E0003F2008E094F840000128EBD184F840202B
:1011F00001E084F841200122206800F01DFB0F4926
:101200002068884203D1426C42F400424264206864
:10121000884208D0B0F1804F05D00949884202D0F9
:101220000849884204D1816801F00701062903D0EA
:10123000016841F001010160002010BD002C014057
:101240000004004000080040FEE700002DE9F043E4
:1012500085B000242C480094019402940394816981
:1012600041F010018161816901F0100104918169EF
:1012700041F020018161816901F0200104918169BF
:1012800041F004018161816901F0040104918169E7
:1012900041F00801816180691C4F00F008004FF4A3
:1012A00000550490002229463846FFF77EFADFF801
:1012B00060800022FF214046FFF777FADFF8549064
:1012C000002201214846FFF770FA00950226012509
:1012D0000396CDE9015469463846FFF771F9FF20BE
:1012E000CDE900050320CDE9024069464046FFF7FD
:1012F00067F903960095CDE9015469464846FFF722
:101300005FF905B0BDE8F083001002400010014015
:1013100000080140000C014010B586B000241248BE
:10132000009401940294039404940E49059401607E
:101330004721C0E901144FF6FE71C0E9031444616E
:101340008461FFF76BFD4FF48050009069460648BA
:10135000FFF7E8FD049404A903480594FFF72AFD6C
:1013600006B010BD002C01407000002010B58EB0FA
:1013700000240794089409940A940B941C2168464D
:101380000C94FEF7E8FE1B48194901604F21C0E9A3
:10139000011440F2E731C0E903148461FFF73EFD18
:1013A0004FF48050079007A91248FFF7BBFD114882
:1013B000FFF7CDFE0B940BA90E480C94FFF7FAFC37
:1013C000602000904FF4FA70CDE9010400226946D4
:1013D00008480494FFF758FE042269460548019422
:1013E000FFF752FE0348FFF709FE0EB010BD0000E4
:1013F00000040040B800002010B58EB0002407940F
:10140000089409940A940B941C2168460C94FEF7E6
:10141000A2FE1B48194901604F21C0E9011440F2A6
:10142000E731C0E903148461FFF7F8FC4FF4805002
:10143000079007A91248FFF775FD1148FFF787FECF
:101440000B940BA90E480C94FFF7B4FC602000909D
:101450004FF4FA70CDE9010400226946084804946B
:10146000FFF712FE0422694605480194FFF70CFEBF
:101470000348FFF7C3FD0EB010BD00000008004098
:1014800000010020FEE770472DE9F04100F060F810
:1014900080B241F294110D1A284600F09FFB2A4CAD
:1014A00000210520A56200F0D9FAE06260690121FF
:1014B000281A2063052000F0D1FA656106466063B2
:1014C000206BFEF74FFFE168FEF7A8FE0746E06AD3
:1014D000FEF748FFA168FEF7A1FE0546A06AFEF7E9
:1014E00041FF6168FEF79AFE2946FEF73FFE394646
:1014F000FEF73CFEFEF750FF05463046FEF732FF92
:101500002169FEF78BFE0646344605F15C00FEF7C6
:1015100029FF2146FEF77CFEFEF73EFF0446C5F19B
:101520005C00FEF71FFF3146FEF772FEFEF734FF48
:10153000642C00DD6424642800DD64202146BDE8BD
:10154000F04100F0A3BA0000000000207047000046
:101550002DE9F047DFF8E4A1012211465046FFF7DC
:1015600024F9DFF8DC818021404600F0F9F84021C1
:10157000404600F0F5F82021404600F0F1F8102137
:10158000404600F0EDF80821404600F0E9F804215B
:10159000404600F0E5F80221404600F0E1F8012164
:1015A000404600F0DDF8012280214046FFF7FDF8BB
:1015B000012240214046FFF7F8F801222021404651
:1015C000FFF7F3F8012210214046FFF7EEF8012261
:1015D00008214046FFF7E9F8012204214046FFF7C1
:1015E000E4F8012202214046FFF7DFF8012211460C
:1015F0004046FFF7DAF80C2000F024FA802140463C
:1016000000F0A3F84021404600F09FF8202140461A
:1016100000F09BF81021404600F097F80821404662
:1016200000F093F80421404600F08FF80221404674
:1016300000F08BF80121404600F087F841F2707904
:10164000484600F0FFF900273E4C3E463D468021CB
:1016500040462760FFF7A4F838B12068012540F024
:101660000100A5614FF47A76206040214046FFF7E3
:1016700097F830B120686D1C40F0100006F5FA664E
:10168000206020214046FFF78BF830B120686D1CA8
:1016900040F4807006F6B836206010214046FFF70F
:1016A0007FF830B120686D1C40F4805006F57A66F2
:1016B000206008214046FFF773F838B120686D1CA0
:1016C00040F48030206041F28830064404214046D6
:1016D000FFF766F828B120684E4440F480106D1C76
:1016E000206002214046FFF75BF838B120686D1C8E
:1016F00040F08070206041F6583006440121404699
:10170000FFF74EF838B12068A76140F080506D1C9B
:1017100006F5FA562060002201215046FFF745F8F1
:1017200096FBF5F0C4E9085025B1E76196FBF5F0AA
:10173000BDE8F087E069401CE061F7E7000C01407C
:10174000000801400000002070471FB50022CDE9CD
:1017500000120121CDE902126946FEF731FF1FBDDB
:101760001FB5002200910121CDE901120221039150
:101770006946FEF725FF1FBDFFF722B830B58FB0D1
:1017800028216846FEF7E7FC14210AA8FEF7E3FCCF
:1017900001210804CDE900100024029402250491DF
:1017A000CDE907504FF4E01009906846FFF75EF965
:1017B0000F20CDE90A056802CDE90C4002210AA8F4
:1017C0000E94FFF787F80FB030BD7047F0B5026890
:1017D000164B174C174D4FF08047984205D0B84232
:1017E00003D0A04201D0A84203D122F070064A687B
:1017F0003243984205D0B84203D0A04201D0A8425B
:1018000003D122F44074CA6822434C6922F080025A
:10181000224302608A68C2620A688262984201D1E9
:101820000969016301214161F0BD0000002C014004
:10183000000400400008004010B501F01F03012122
:10184000046A99408C430462016A9A401143016220
:1018500010BD10B5846842EA032224F47F440A4391
:101860002243826010BD826822F070020A4342F077
:10187000070181607047000030B5026A22F0010262
:101880000262026A4368846924F073050C682C4381
:1018900022F002058A682A430A4DA8420BD122F0A1
:1018A0000805CA6823F440732A434D6922F00402F4
:1018B0001D438B692B434360846149684163026225
:1018C00030BD0000002C014030B5026A22F0100249
:1018D0000262026A436884690D6824F4E64444EABB
:1018E00005248D6822F0200242EA05120B4DA84221
:1018F0000ED1CD6822F0800242EA05124D6923F430
:10190000406343EA85038D6922F0400243EA850380
:101910004360846149688163026230BD002C0140EC
:1019200030B5026A22F480720262036A4268C469B6
:1019300023F4007324F073050C682C438D6843EA8C
:1019400005230C4DA8420ED1CD6823F4006343EA71
:1019500005234D6922F4405242EA05128D6923F4B1
:10196000806342EA05124260C4614968C163036250
:1019700030BD0000002C014030B5026A22F48052D4
:101980000262046A4268C3690D6823F4E64343EACD
:1019900005238D6824F4005444EA0534064DA8421A
:1019A00004D14D6922F4804242EA85124260C3614B
:1019B00049680164046230BD002C014010B5036A1F
:1019C000046A24F001040462846924F0F00444EA07
:1019D000021423F00A020A438461026210BD10B5AA
:1019E000036A23F0100303628369046A23F47043DB
:1019F00043EA023224F0A00343EA0111826101624A
:101A000010BDFEE70907090E002804DB00F1E02005
:101A100080F80014704700F00F0000F1E02080F81B
:101A2000141D704702E008C8121F08C1002AFAD12D
:101A300070477047002001E001C1121F002AFBD14E
:101A400070470000044900220B685A6209684A6A1C
:101A50008242FCD3704700007000002030B504467D
:101A600000200246084B0BE0012905D153F8225013
:101A7000002D01DA401B02E053F822502844521C8A
:101A8000A242F1DB30BD00004800002070B50646E0
:101A90000A48006A68B10846FEF76DFC04460D4628
:101AA0003046FEF768FC22462B46BDE8704000F049
:101AB00043B8BDE8704000F0A1B80000000000206D
:101AC000FEF786FEFFF75AFEFFF7C0FBFFF724FC88
:101AD000FFF74CFCFFF790FC1648FFF7FBF91548A1
:101AE00000214830FFF762FB124800219030FFF7D9
:101AF0005DFB104804214830FFF758FB0D480421D6
:101B00009030FFF753FB0B49642048310A6850635B
:101B1000096888630749002090310A6850630968A2
:101B200088634FF4FA60FEF739FD00BFFFF7ACFCA5
:101B3000FCE70000700000202DE9F84F07468846BA
:101B4000DFF894B015461E46104619460024DFF80B
:101B5000849022465B46FEF793FBFEF736FC00902E
:101B600009F1480A3846414622465B46FEF788FBA3
:101B7000FEF72BFC83460022134628463146FEF72B
:101B80003DFC07D2D9F800004463D9F80010009852
:101B9000886306E0D9F8002000995163D9F8000065
:101BA00084630022134638464146FEF727FC08D2DC
:101BB000DAF800004463DAF80010C1F838B0BDE884
:101BC000F88FDAF80020C2F834B0DAF80000846345
:101BD000F5E70000B800002000002440064A092173
:101BE00002EB810353F8043C42F82130491E0029DE
:101BF000F6DC106070470000480000200C4830B44C
:101C0000C169806919290BDA0A490B4C0AE00B46B5
:101C10000020214601E02346002030BCFFF78CBFA6
:101C20000649074C01284FF00002F4D1EFE700000D
:101C30000000002000005940000034C000805140E6
:101C400000804AC000000000000000000102030400
:101C500006070809741C0008000000204800000066
:101C6000241A0008BC1C00084800002000050000E1
:101C7000341A0008000000006F12033B6F12833A11
:101C800000007041000000000000000000000000A3
:101C90000000000000000000000000000000000044
:101CA0000000000000000000000000000100000033
:0C1CB00010000000000000000024F40000
:04000005080000ED02
:00000001FF
